{
  "_format": "hh-sol-artifact-1",
  "contractName": "MyToken",
  "sourceName": "contracts/MyToken.sol",
  "abi": [
    {
      "inputs": [
        {
          "internalType": "uint256",
          "name": "initialSupply",
          "type": "uint256"
        }
      ],
      "stateMutability": "nonpayable",
      "type": "constructor"
    },
    {
      "inputs": [
        {
          "internalType": "address",
          "name": "spender",
          "type": "address"
        },
        {
          "internalType": "uint256",
          "name": "allowance",
          "type": "uint256"
        },
        {
          "internalType": "uint256",
          "name": "needed",
          "type": "uint256"
        }
      ],
      "name": "ERC20InsufficientAllowance",
      "type": "error"
    },
    {
      "inputs": [
        {
          "internalType": "address",
          "name": "sender",
          "type": "address"
        },
        {
          "internalType": "uint256",
          "name": "balance",
          "type": "uint256"
        },
        {
          "internalType": "uint256",
          "name": "needed",
          "type": "uint256"
        }
      ],
      "name": "ERC20InsufficientBalance",
      "type": "error"
    },
    {
      "inputs": [
        {
          "internalType": "address",
          "name": "approver",
          "type": "address"
        }
      ],
      "name": "ERC20InvalidApprover",
      "type": "error"
    },
    {
      "inputs": [
        {
          "internalType": "address",
          "name": "receiver",
          "type": "address"
        }
      ],
      "name": "ERC20InvalidReceiver",
      "type": "error"
    },
    {
      "inputs": [
        {
          "internalType": "address",
          "name": "sender",
          "type": "address"
        }
      ],
      "name": "ERC20InvalidSender",
      "type": "error"
    },
    {
      "inputs": [
        {
          "internalType": "address",
          "name": "spender",
          "type": "address"
        }
      ],
      "name": "ERC20InvalidSpender",
      "type": "error"
    },
    {
      "anonymous": false,
      "inputs": [
        {
          "indexed": true,
          "internalType": "address",
          "name": "owner",
          "type": "address"
        },
        {
          "indexed": true,
          "internalType": "address",
          "name": "spender",
          "type": "address"
        },
        {
          "indexed": false,
          "internalType": "uint256",
          "name": "value",
          "type": "uint256"
        }
      ],
      "name": "Approval",
      "type": "event"
    },
    {
      "anonymous": false,
      "inputs": [
        {
          "indexed": true,
          "internalType": "address",
          "name": "from",
          "type": "address"
        },
        {
          "indexed": true,
          "internalType": "address",
          "name": "to",
          "type": "address"
        },
        {
          "indexed": false,
          "internalType": "uint256",
          "name": "value",
          "type": "uint256"
        }
      ],
      "name": "Transfer",
      "type": "event"
    },
    {
      "inputs": [
        {
          "internalType": "address",
          "name": "owner",
          "type": "address"
        },
        {
          "internalType": "address",
          "name": "spender",
          "type": "address"
        }
      ],
      "name": "allowance",
      "outputs": [
        {
          "internalType": "uint256",
          "name": "",
          "type": "uint256"
        }
      ],
      "stateMutability": "view",
      "type": "function"
    },
    {
      "inputs": [
        {
          "internalType": "address",
          "name": "spender",
          "type": "address"
        },
        {
          "internalType": "uint256",
          "name": "value",
          "type": "uint256"
        }
      ],
      "name": "approve",
      "outputs": [
        {
          "internalType": "bool",
          "name": "",
          "type": "bool"
        }
      ],
      "stateMutability": "nonpayable",
      "type": "function"
    },
    {
      "inputs": [
        {
          "internalType": "address",
          "name": "account",
          "type": "address"
        }
      ],
      "name": "balanceOf",
      "outputs": [
        {
          "internalType": "uint256",
          "name": "",
          "type": "uint256"
        }
      ],
      "stateMutability": "view",
      "type": "function"
    },
    {
      "inputs": [],
      "name": "claimTokens",
      "outputs": [],
      "stateMutability": "nonpayable",
      "type": "function"
    },
    {
      "inputs": [],
      "name": "decimals",
      "outputs": [
        {
          "internalType": "uint8",
          "name": "",
          "type": "uint8"
        }
      ],
      "stateMutability": "view",
      "type": "function"
    },
    {
      "inputs": [],
      "name": "distributionAmount",
      "outputs": [
        {
          "internalType": "uint256",
          "name": "",
          "type": "uint256"
        }
      ],
      "stateMutability": "view",
      "type": "function"
    },
    {
      "inputs": [],
      "name": "distributionInterval",
      "outputs": [
        {
          "internalType": "uint256",
          "name": "",
          "type": "uint256"
        }
      ],
      "stateMutability": "view",
      "type": "function"
    },
    {
      "inputs": [],
      "name": "feePercent",
      "outputs": [
        {
          "internalType": "uint256",
          "name": "",
          "type": "uint256"
        }
      ],
      "stateMutability": "view",
      "type": "function"
    },
    {
      "inputs": [],
      "name": "feeReceiver",
      "outputs": [
        {
          "internalType": "address",
          "name": "",
          "type": "address"
        }
      ],
      "stateMutability": "view",
      "type": "function"
    },
    {
      "inputs": [
        {
          "internalType": "address",
          "name": "",
          "type": "address"
        }
      ],
      "name": "lastClaim",
      "outputs": [
        {
          "internalType": "uint256",
          "name": "",
          "type": "uint256"
        }
      ],
      "stateMutability": "view",
      "type": "function"
    },
    {
      "inputs": [],
      "name": "name",
      "outputs": [
        {
          "internalType": "string",
          "name": "",
          "type": "string"
        }
      ],
      "stateMutability": "view",
      "type": "function"
    },
    {
      "inputs": [],
      "name": "owner",
      "outputs": [
        {
          "internalType": "address",
          "name": "",
          "type": "address"
        }
      ],
      "stateMutability": "view",
      "type": "function"
    },
    {
      "inputs": [
        {
          "internalType": "uint256",
          "name": "amount",
          "type": "uint256"
        }
      ],
      "name": "setDistributionAmount",
      "outputs": [],
      "stateMutability": "nonpayable",
      "type": "function"
    },
    {
      "inputs": [
        {
          "internalType": "uint256",
          "name": "newFee",
          "type": "uint256"
        }
      ],
      "name": "setFeePercent",
      "outputs": [],
      "stateMutability": "nonpayable",
      "type": "function"
    },
    {
      "inputs": [],
      "name": "symbol",
      "outputs": [
        {
          "internalType": "string",
          "name": "",
          "type": "string"
        }
      ],
      "stateMutability": "view",
      "type": "function"
    },
    {
      "inputs": [],
      "name": "totalSupply",
      "outputs": [
        {
          "internalType": "uint256",
          "name": "",
          "type": "uint256"
        }
      ],
      "stateMutability": "view",
      "type": "function"
    },
    {
      "inputs": [
        {
          "internalType": "address",
          "name": "recipient",
          "type": "address"
        },
        {
          "internalType": "uint256",
          "name": "amount",
          "type": "uint256"
        }
      ],
      "name": "transfer",
      "outputs": [
        {
          "internalType": "bool",
          "name": "",
          "type": "bool"
        }
      ],
      "stateMutability": "nonpayable",
      "type": "function"
    },
    {
      "inputs": [
        {
          "internalType": "address",
          "name": "sender",
          "type": "address"
        },
        {
          "internalType": "address",
          "name": "recipient",
          "type": "address"
        },
        {
          "internalType": "uint256",
          "name": "amount",
          "type": "uint256"
        }
      ],
      "name": "transferFrom",
      "outputs": [
        {
          "internalType": "bool",
          "name": "",
          "type": "bool"
        }
      ],
      "stateMutability": "nonpayable",
      "type": "function"
    }
  ],
  "bytecode": "0x6080604052600a600555601e60085561001c6101af60201b60201c565b600a61002891906105de565b60016100349190610629565b60095534801561004357600080fd5b5060405161246c38038061246c8339818101604052810190610065919061069c565b6040518060400160405280600781526020017f4d79546f6b656e000000000000000000000000000000000000000000000000008152506040518060400160405280600381526020017f4d544b000000000000000000000000000000000000000000000000000000000081525081600390816100e0919061090f565b5080600490816100f0919061090f565b505050610127336101056101af60201b60201c565b600a61011191906105de565b8361011c9190610629565b6101b860201b60201c565b33600660006101000a81548173ffffffffffffffffffffffffffffffffffffffff021916908373ffffffffffffffffffffffffffffffffffffffff16021790555033600760006101000a81548173ffffffffffffffffffffffffffffffffffffffff021916908373ffffffffffffffffffffffffffffffffffffffff16021790555050610ad2565b60006012905090565b600073ffffffffffffffffffffffffffffffffffffffff168273ffffffffffffffffffffffffffffffffffffffff160361022a5760006040517fec442f050000000000000000000000000000000000000000000000000000000081526004016102219190610a22565b60405180910390fd5b61023c6000838361024060201b60201c565b5050565b600073ffffffffffffffffffffffffffffffffffffffff168373ffffffffffffffffffffffffffffffffffffffff16036102925780600260008282546102869190610a3d565b92505081905550610365565b60008060008573ffffffffffffffffffffffffffffffffffffffff1673ffffffffffffffffffffffffffffffffffffffff1681526020019081526020016000205490508181101561031e578381836040517fe450d38c00000000000000000000000000000000000000000000000000000000815260040161031593929190610a80565b60405180910390fd5b8181036000808673ffffffffffffffffffffffffffffffffffffffff1673ffffffffffffffffffffffffffffffffffffffff16815260200190815260200160002081905550505b600073ffffffffffffffffffffffffffffffffffffffff168273ffffffffffffffffffffffffffffffffffffffff16036103ae57806002600082825403925050819055506103fb565b806000808473ffffffffffffffffffffffffffffffffffffffff1673ffffffffffffffffffffffffffffffffffffffff168152602001908152602001600020600082825401925050819055505b8173ffffffffffffffffffffffffffffffffffffffff168373ffffffffffffffffffffffffffffffffffffffff167fddf252ad1be2c89b69c2b068fc378daa952ba7f163c4a11628f55a4df523b3ef836040516104589190610ab7565b60405180910390a3505050565b7f4e487b7100000000000000000000000000000000000000000000000000000000600052601160045260246000fd5b60008160011c9050919050565b6000808291508390505b60018511156104eb578086048111156104c7576104c6610465565b5b60018516156104d65780820291505b80810290506104e485610494565b94506104ab565b94509492505050565b60008261050457600190506105c0565b8161051257600090506105c0565b8160018114610528576002811461053257610561565b60019150506105c0565b60ff84111561054457610543610465565b5b8360020a91508482111561055b5761055a610465565b5b506105c0565b5060208310610133831016604e8410600b84101617156105965782820a90508381111561059157610590610465565b5b6105c0565b6105a384848460016104a1565b925090508184048111156105ba576105b9610465565b5b81810290505b9392505050565b6000819050919050565b600060ff82169050919050565b60006105e9826105c7565b91506105f4836105d1565b92506106217fffffffffffffffffffffffffffffffffffffffffffffffffffffffffffffffff84846104f4565b905092915050565b6000610634826105c7565b915061063f836105c7565b925082820261064d816105c7565b9150828204841483151761066457610663610465565b5b5092915050565b600080fd5b610679816105c7565b811461068457600080fd5b50565b60008151905061069681610670565b92915050565b6000602082840312156106b2576106b161066b565b5b60006106c084828501610687565b91505092915050565b600081519050919050565b7f4e487b7100000000000000000000000000000000000000000000000000000000600052604160045260246000fd5b7f4e487b7100000000000000000000000000000000000000000000000000000000600052602260045260246000fd5b6000600282049050600182168061074a57607f821691505b60208210810361075d5761075c610703565b5b50919050565b60008190508160005260206000209050919050565b60006020601f8301049050919050565b600082821b905092915050565b6000600883026107c57fffffffffffffffffffffffffffffffffffffffffffffffffffffffffffffffff82610788565b6107cf8683610788565b95508019841693508086168417925050509392505050565b6000819050919050565b600061080c610807610802846105c7565b6107e7565b6105c7565b9050919050565b6000819050919050565b610826836107f1565b61083a61083282610813565b848454610795565b825550505050565b600090565b61084f610842565b61085a81848461081d565b505050565b5b8181101561087e57610873600082610847565b600181019050610860565b5050565b601f8211156108c35761089481610763565b61089d84610778565b810160208510156108ac578190505b6108c06108b885610778565b83018261085f565b50505b505050565b600082821c905092915050565b60006108e6600019846008026108c8565b1980831691505092915050565b60006108ff83836108d5565b9150826002028217905092915050565b610918826106c9565b67ffffffffffffffff811115610931576109306106d4565b5b61093b8254610732565b610946828285610882565b600060209050601f8311600181146109795760008415610967578287015190505b61097185826108f3565b8655506109d9565b601f19841661098786610763565b60005b828110156109af5784890151825560018201915060208501945060208101905061098a565b868310156109cc57848901516109c8601f8916826108d5565b8355505b6001600288020188555050505b505050505050565b600073ffffffffffffffffffffffffffffffffffffffff82169050919050565b6000610a0c826109e1565b9050919050565b610a1c81610a01565b82525050565b6000602082019050610a376000830184610a13565b92915050565b6000610a48826105c7565b9150610a53836105c7565b9250828201905080821115610a6b57610a6a610465565b5b92915050565b610a7a816105c7565b82525050565b6000606082019050610a956000830186610a13565b610aa26020830185610a71565b610aaf6040830184610a71565b949350505050565b6000602082019050610acc6000830184610a71565b92915050565b61198b80610ae16000396000f3fe608060405234801561001057600080fd5b50600436106101165760003560e01c80637ce3489b116100a2578063a9059cbb11610071578063a9059cbb146102d3578063b0e0c68114610303578063b3f0067414610321578063dd62ed3e1461033f578063fc8286fd1461036f57610116565b80637ce3489b1461025d5780637fd6f15c146102795780638da5cb5b1461029757806395d89b41146102b557610116565b8063313ce567116100e9578063313ce567146101b757806348c54b9d146101d55780635c16e15e146101df57806370a082311461020f57806371201a0e1461023f57610116565b806306fdde031461011b578063095ea7b31461013957806318160ddd1461016957806323b872dd14610187575b600080fd5b61012361038b565b60405161013091906110aa565b60405180910390f35b610153600480360381019061014e9190611165565b61041d565b60405161016091906111c0565b60405180910390f35b610171610440565b60405161017e91906111ea565b60405180910390f35b6101a1600480360381019061019c9190611205565b61044a565b6040516101ae91906111c0565b60405180910390f35b6101bf610572565b6040516101cc9190611274565b60405180910390f35b6101dd61057b565b005b6101f960048036038101906101f4919061128f565b610662565b60405161020691906111ea565b60405180910390f35b6102296004803603810190610224919061128f565b61067a565b60405161023691906111ea565b60405180910390f35b6102476106c2565b60405161025491906111ea565b60405180910390f35b610277600480360381019061027291906112bc565b6106c8565b005b6102816107a6565b60405161028e91906111ea565b60405180910390f35b61029f6107ac565b6040516102ac91906112f8565b60405180910390f35b6102bd6107d2565b6040516102ca91906110aa565b60405180910390f35b6102ed60048036038101906102e89190611165565b610864565b6040516102fa91906111c0565b60405180910390f35b61030b610923565b60405161031891906111ea565b60405180910390f35b610329610929565b60405161033691906112f8565b60405180910390f35b61035960048036038101906103549190611313565b61094f565b60405161036691906111ea565b60405180910390f35b610389600480360381019061038491906112bc565b6109d6565b005b60606003805461039a90611382565b80601f01602080910402602001604051908101604052809291908181526020018280546103c690611382565b80156104135780601f106103e857610100808354040283529160200191610413565b820191906000526020600020905b8154815290600101906020018083116103f657829003601f168201915b5050505050905090565b600080610428610a8e565b9050610435818585610a96565b600191505092915050565b6000600254905090565b6000806127106005548461045e91906113e2565b6104689190611453565b9050600081846104789190611484565b9050836104848761067a565b10156104c5576040517f08c379a00000000000000000000000000000000000000000000000000000000081526004016104bc90611504565b60405180910390fd5b6104f286600660009054906101000a900473ffffffffffffffffffffffffffffffffffffffff1684610aa8565b6104fd868683610aa8565b6000610509873361094f565b90508481101561054e576040517f08c379a000000000000000000000000000000000000000000000000000000000815260040161054590611596565b60405180910390fd5b6105648733878461055f9190611484565b610a96565b600193505050509392505050565b60006012905090565b6000600a60003373ffffffffffffffffffffffffffffffffffffffff1673ffffffffffffffffffffffffffffffffffffffff16815260200190815260200160002054426105c89190611484565b905060085481101561060f576040517f08c379a000000000000000000000000000000000000000000000000000000000815260040161060690611628565b60405180910390fd5b61061b33600954610b9c565b42600a60003373ffffffffffffffffffffffffffffffffffffffff1673ffffffffffffffffffffffffffffffffffffffff1681526020019081526020016000208190555050565b600a6020528060005260406000206000915090505481565b60008060008373ffffffffffffffffffffffffffffffffffffffff1673ffffffffffffffffffffffffffffffffffffffff168152602001908152602001600020549050919050565b60085481565b600760009054906101000a900473ffffffffffffffffffffffffffffffffffffffff1673ffffffffffffffffffffffffffffffffffffffff163373ffffffffffffffffffffffffffffffffffffffff1614610758576040517f08c379a000000000000000000000000000000000000000000000000000000000815260040161074f906116ba565b60405180910390fd5b606481111561079c576040517f08c379a00000000000000000000000000000000000000000000000000000000081526004016107939061174c565b60405180910390fd5b8060058190555050565b60055481565b600760009054906101000a900473ffffffffffffffffffffffffffffffffffffffff1681565b6060600480546107e190611382565b80601f016020809104026020016040519081016040528092919081815260200182805461080d90611382565b801561085a5780601f1061082f5761010080835404028352916020019161085a565b820191906000526020600020905b81548152906001019060200180831161083d57829003601f168201915b5050505050905090565b6000806127106005548461087891906113e2565b6108829190611453565b9050600081846108929190611484565b90508361089e3361067a565b10156108df576040517f08c379a00000000000000000000000000000000000000000000000000000000081526004016108d690611504565b60405180910390fd5b61090c33600660009054906101000a900473ffffffffffffffffffffffffffffffffffffffff1684610aa8565b610917338683610aa8565b60019250505092915050565b60095481565b600660009054906101000a900473ffffffffffffffffffffffffffffffffffffffff1681565b6000600160008473ffffffffffffffffffffffffffffffffffffffff1673ffffffffffffffffffffffffffffffffffffffff16815260200190815260200160002060008373ffffffffffffffffffffffffffffffffffffffff1673ffffffffffffffffffffffffffffffffffffffff16815260200190815260200160002054905092915050565b600760009054906101000a900473ffffffffffffffffffffffffffffffffffffffff1673ffffffffffffffffffffffffffffffffffffffff163373ffffffffffffffffffffffffffffffffffffffff1614610a66576040517f08c379a0000000000000000000000000000000000000000000000000000000008152600401610a5d906116ba565b60405180910390fd5b610a6e610572565b600a610a7a919061189f565b81610a8591906113e2565b60098190555050565b600033905090565b610aa38383836001610c1e565b505050565b600073ffffffffffffffffffffffffffffffffffffffff168373ffffffffffffffffffffffffffffffffffffffff1603610b1a5760006040517f96c6fd1e000000000000000000000000000000000000000000000000000000008152600401610b1191906112f8565b60405180910390fd5b600073ffffffffffffffffffffffffffffffffffffffff168273ffffffffffffffffffffffffffffffffffffffff1603610b8c5760006040517fec442f05000000000000000000000000000000000000000000000000000000008152600401610b8391906112f8565b60405180910390fd5b610b97838383610df5565b505050565b600073ffffffffffffffffffffffffffffffffffffffff168273ffffffffffffffffffffffffffffffffffffffff1603610c0e5760006040517fec442f05000000000000000000000000000000000000000000000000000000008152600401610c0591906112f8565b60405180910390fd5b610c1a60008383610df5565b5050565b600073ffffffffffffffffffffffffffffffffffffffff168473ffffffffffffffffffffffffffffffffffffffff1603610c905760006040517fe602df05000000000000000000000000000000000000000000000000000000008152600401610c8791906112f8565b60405180910390fd5b600073ffffffffffffffffffffffffffffffffffffffff168373ffffffffffffffffffffffffffffffffffffffff1603610d025760006040517f94280d62000000000000000000000000000000000000000000000000000000008152600401610cf991906112f8565b60405180910390fd5b81600160008673ffffffffffffffffffffffffffffffffffffffff1673ffffffffffffffffffffffffffffffffffffffff16815260200190815260200160002060008573ffffffffffffffffffffffffffffffffffffffff1673ffffffffffffffffffffffffffffffffffffffff168152602001908152602001600020819055508015610def578273ffffffffffffffffffffffffffffffffffffffff168473ffffffffffffffffffffffffffffffffffffffff167f8c5be1e5ebec7d5bd14f71427d1e84f3dd0314c0f7b2291e5b200ac8c7c3b92584604051610de691906111ea565b60405180910390a35b50505050565b600073ffffffffffffffffffffffffffffffffffffffff168373ffffffffffffffffffffffffffffffffffffffff1603610e47578060026000828254610e3b91906118ea565b92505081905550610f1a565b60008060008573ffffffffffffffffffffffffffffffffffffffff1673ffffffffffffffffffffffffffffffffffffffff16815260200190815260200160002054905081811015610ed3578381836040517fe450d38c000000000000000000000000000000000000000000000000000000008152600401610eca9392919061191e565b60405180910390fd5b8181036000808673ffffffffffffffffffffffffffffffffffffffff1673ffffffffffffffffffffffffffffffffffffffff16815260200190815260200160002081905550505b600073ffffffffffffffffffffffffffffffffffffffff168273ffffffffffffffffffffffffffffffffffffffff1603610f635780600260008282540392505081905550610fb0565b806000808473ffffffffffffffffffffffffffffffffffffffff1673ffffffffffffffffffffffffffffffffffffffff168152602001908152602001600020600082825401925050819055505b8173ffffffffffffffffffffffffffffffffffffffff168373ffffffffffffffffffffffffffffffffffffffff167fddf252ad1be2c89b69c2b068fc378daa952ba7f163c4a11628f55a4df523b3ef8360405161100d91906111ea565b60405180910390a3505050565b600081519050919050565b600082825260208201905092915050565b60005b83811015611054578082015181840152602081019050611039565b60008484015250505050565b6000601f19601f8301169050919050565b600061107c8261101a565b6110868185611025565b9350611096818560208601611036565b61109f81611060565b840191505092915050565b600060208201905081810360008301526110c48184611071565b905092915050565b600080fd5b600073ffffffffffffffffffffffffffffffffffffffff82169050919050565b60006110fc826110d1565b9050919050565b61110c816110f1565b811461111757600080fd5b50565b60008135905061112981611103565b92915050565b6000819050919050565b6111428161112f565b811461114d57600080fd5b50565b60008135905061115f81611139565b92915050565b6000806040838503121561117c5761117b6110cc565b5b600061118a8582860161111a565b925050602061119b85828601611150565b9150509250929050565b60008115159050919050565b6111ba816111a5565b82525050565b60006020820190506111d560008301846111b1565b92915050565b6111e48161112f565b82525050565b60006020820190506111ff60008301846111db565b92915050565b60008060006060848603121561121e5761121d6110cc565b5b600061122c8682870161111a565b935050602061123d8682870161111a565b925050604061124e86828701611150565b9150509250925092565b600060ff82169050919050565b61126e81611258565b82525050565b60006020820190506112896000830184611265565b92915050565b6000602082840312156112a5576112a46110cc565b5b60006112b38482850161111a565b91505092915050565b6000602082840312156112d2576112d16110cc565b5b60006112e084828501611150565b91505092915050565b6112f2816110f1565b82525050565b600060208201905061130d60008301846112e9565b92915050565b6000806040838503121561132a576113296110cc565b5b60006113388582860161111a565b92505060206113498582860161111a565b9150509250929050565b7f4e487b7100000000000000000000000000000000000000000000000000000000600052602260045260246000fd5b6000600282049050600182168061139a57607f821691505b6020821081036113ad576113ac611353565b5b50919050565b7f4e487b7100000000000000000000000000000000000000000000000000000000600052601160045260246000fd5b60006113ed8261112f565b91506113f88361112f565b92508282026114068161112f565b9150828204841483151761141d5761141c6113b3565b5b5092915050565b7f4e487b7100000000000000000000000000000000000000000000000000000000600052601260045260246000fd5b600061145e8261112f565b91506114698361112f565b92508261147957611478611424565b5b828204905092915050565b600061148f8261112f565b915061149a8361112f565b92508282039050818111156114b2576114b16113b3565b5b92915050565b7f496e73756666696369656e742062616c616e6365000000000000000000000000600082015250565b60006114ee601483611025565b91506114f9826114b8565b602082019050919050565b6000602082019050818103600083015261151d816114e1565b9050919050565b7f5472616e7366657220616d6f756e74206578636565647320616c6c6f77616e6360008201527f6500000000000000000000000000000000000000000000000000000000000000602082015250565b6000611580602183611025565b915061158b82611524565b604082019050919050565b600060208201905081810360008301526115af81611573565b9050919050565b7f596f75206d7573742077616974206265666f726520636c61696d696e6720616760008201527f61696e0000000000000000000000000000000000000000000000000000000000602082015250565b6000611612602383611025565b915061161d826115b6565b604082019050919050565b6000602082019050818103600083015261164181611605565b9050919050565b7f4f6e6c79206f776e65722063616e2063616c6c20746869732066756e6374696f60008201527f6e00000000000000000000000000000000000000000000000000000000000000602082015250565b60006116a4602183611025565b91506116af82611648565b604082019050919050565b600060208201905081810360008301526116d381611697565b9050919050565b7f4665652063616e6e6f74206578636565642031252028313030202f203130303060008201527f3029000000000000000000000000000000000000000000000000000000000000602082015250565b6000611736602283611025565b9150611741826116da565b604082019050919050565b6000602082019050818103600083015261176581611729565b9050919050565b60008160011c9050919050565b6000808291508390505b60018511156117c35780860481111561179f5761179e6113b3565b5b60018516156117ae5780820291505b80810290506117bc8561176c565b9450611783565b94509492505050565b6000826117dc5760019050611898565b816117ea5760009050611898565b8160018114611800576002811461180a57611839565b6001915050611898565b60ff84111561181c5761181b6113b3565b5b8360020a915084821115611833576118326113b3565b5b50611898565b5060208310610133831016604e8410600b841016171561186e5782820a905083811115611869576118686113b3565b5b611898565b61187b8484846001611779565b92509050818404811115611892576118916113b3565b5b81810290505b9392505050565b60006118aa8261112f565b91506118b583611258565b92506118e27fffffffffffffffffffffffffffffffffffffffffffffffffffffffffffffffff84846117cc565b905092915050565b60006118f58261112f565b91506119008361112f565b9250828201905080821115611918576119176113b3565b5b92915050565b600060608201905061193360008301866112e9565b61194060208301856111db565b61194d60408301846111db565b94935050505056fea2646970667358221220604e12d0b1bfcb87ad3c233ed8580f9a2ead1b31cf3337c2b5057ec6130fd92b64736f6c634300081c0033",
  "linkReferences": {},
  "deployedLinkReferences": {}
}